{
  "contractName": "RenewableEnergyExchange",
  "abi": [
    {
      "constant": true,
      "inputs": [],
      "name": "name",
      "outputs": [
        {
          "name": "",
          "type": "string"
        }
      ],
      "payable": false,
      "stateMutability": "view",
      "type": "function",
      "signature": "0x06fdde03"
    },
    {
      "constant": true,
      "inputs": [
        {
          "name": "",
          "type": "uint256"
        }
      ],
      "name": "energyContracts",
      "outputs": [
        {
          "name": "energyContractId",
          "type": "uint256"
        },
        {
          "name": "buyer",
          "type": "address"
        },
        {
          "name": "seller",
          "type": "address"
        },
        {
          "name": "energyAmount",
          "type": "uint256"
        },
        {
          "name": "price",
          "type": "uint256"
        },
        {
          "name": "startDate",
          "type": "uint256"
        },
        {
          "name": "endDate",
          "type": "uint256"
        },
        {
          "name": "completed",
          "type": "bool"
        }
      ],
      "payable": false,
      "stateMutability": "view",
      "type": "function",
      "signature": "0x228f3d0b"
    },
    {
      "constant": true,
      "inputs": [],
      "name": "energyContractCount",
      "outputs": [
        {
          "name": "",
          "type": "uint256"
        }
      ],
      "payable": false,
      "stateMutability": "view",
      "type": "function",
      "signature": "0x2f87c508"
    },
    {
      "inputs": [],
      "payable": false,
      "stateMutability": "nonpayable",
      "type": "constructor",
      "signature": "constructor"
    },
    {
      "anonymous": false,
      "inputs": [
        {
          "indexed": false,
          "name": "energyContractId",
          "type": "uint256"
        },
        {
          "indexed": false,
          "name": "buyer",
          "type": "address"
        },
        {
          "indexed": false,
          "name": "seller",
          "type": "address"
        },
        {
          "indexed": false,
          "name": "energyAmount",
          "type": "uint256"
        },
        {
          "indexed": false,
          "name": "price",
          "type": "uint256"
        },
        {
          "indexed": false,
          "name": "startDate",
          "type": "uint256"
        },
        {
          "indexed": false,
          "name": "endDate",
          "type": "uint256"
        },
        {
          "indexed": false,
          "name": "completed",
          "type": "bool"
        }
      ],
      "name": "EnergyContractCreated",
      "type": "event",
      "signature": "0x6b4ad594d8ede7aae02d73d8f9b96821b585e1962ae5427e5f626b435b1dab1a"
    },
    {
      "anonymous": false,
      "inputs": [
        {
          "indexed": false,
          "name": "energyContractId",
          "type": "uint256"
        },
        {
          "indexed": false,
          "name": "buyer",
          "type": "address"
        },
        {
          "indexed": false,
          "name": "seller",
          "type": "address"
        },
        {
          "indexed": false,
          "name": "energyAmount",
          "type": "uint256"
        },
        {
          "indexed": false,
          "name": "price",
          "type": "uint256"
        },
        {
          "indexed": false,
          "name": "startDate",
          "type": "uint256"
        },
        {
          "indexed": false,
          "name": "endDate",
          "type": "uint256"
        },
        {
          "indexed": false,
          "name": "completed",
          "type": "bool"
        }
      ],
      "name": "EnergyContractCompleted",
      "type": "event",
      "signature": "0x7bd1499cbf85e4cbe93c2480e3533dc5c1e9e51a60b759cf8f7496a879e40c61"
    },
    {
      "constant": false,
      "inputs": [
        {
          "name": "_energyAmount",
          "type": "uint256"
        },
        {
          "name": "_price",
          "type": "uint256"
        },
        {
          "name": "_duration",
          "type": "uint256"
        }
      ],
      "name": "createEnergyContract",
      "outputs": [],
      "payable": false,
      "stateMutability": "nonpayable",
      "type": "function",
      "signature": "0xb1aa0bc2"
    },
    {
      "constant": false,
      "inputs": [
        {
          "name": "_energyContractId",
          "type": "uint256"
        }
      ],
      "name": "completeEnergyContract",
      "outputs": [],
      "payable": true,
      "stateMutability": "payable",
      "type": "function",
      "signature": "0xbc05f81f"
    },
    {
      "constant": true,
      "inputs": [
        {
          "name": "_energyContractId",
          "type": "uint256"
        }
      ],
      "name": "getEnergyContract",
      "outputs": [
        {
          "name": "",
          "type": "uint256"
        },
        {
          "name": "",
          "type": "address"
        },
        {
          "name": "",
          "type": "address"
        },
        {
          "name": "",
          "type": "uint256"
        },
        {
          "name": "",
          "type": "uint256"
        },
        {
          "name": "",
          "type": "uint256"
        },
        {
          "name": "",
          "type": "uint256"
        },
        {
          "name": "",
          "type": "bool"
        }
      ],
      "payable": false,
      "stateMutability": "view",
      "type": "function",
      "signature": "0xd5a809f1"
    }
  ],
  "bytecode": "0x6080604052600060015534801561001557600080fd5b50606060405190810160405280602e81526020017f506c617461666f726d6120646520696e74657263616d62696f20646520656e6581526020017f726769612072656e6f7661626c650000000000000000000000000000000000008152506000908051906020019061008892919061008e565b50610133565b828054600181600116156101000203166002900490600052602060002090601f016020900481019282601f106100cf57805160ff19168380011785556100fd565b828001600101855582156100fd579182015b828111156100fc5782518255916020019190600101906100e1565b5b50905061010a919061010e565b5090565b61013091905b8082111561012c576000816000905550600101610114565b5090565b90565b610eb8806101426000396000f3fe608060405260043610610078576000357c0100000000000000000000000000000000000000000000000000000000900463ffffffff16806306fdde031461007d578063228f3d0b1461010d5780632f87c508146101e9578063b1aa0bc214610214578063bc05f81f14610263578063d5a809f114610291575b600080fd5b34801561008957600080fd5b5061009261036d565b6040518080602001828103825283818151815260200191508051906020019080838360005b838110156100d25780820151818401526020810190506100b7565b50505050905090810190601f1680156100ff5780820380516001836020036101000a031916815260200191505b509250505060405180910390f35b34801561011957600080fd5b506101466004803603602081101561013057600080fd5b810190808035906020019092919050505061040b565b604051808981526020018873ffffffffffffffffffffffffffffffffffffffff1673ffffffffffffffffffffffffffffffffffffffff1681526020018773ffffffffffffffffffffffffffffffffffffffff1673ffffffffffffffffffffffffffffffffffffffff168152602001868152602001858152602001848152602001838152602001821515151581526020019850505050505050505060405180910390f35b3480156101f557600080fd5b506101fe6104a0565b6040518082815260200191505060405180910390f35b34801561022057600080fd5b506102616004803603606081101561023757600080fd5b810190808035906020019092919080359060200190929190803590602001909291905050506104a6565b005b61028f6004803603602081101561027957600080fd5b8101908080359060200190929190505050610817565b005b34801561029d57600080fd5b506102ca600480360360208110156102b457600080fd5b8101908080359060200190929190505050610d5e565b604051808981526020018873ffffffffffffffffffffffffffffffffffffffff1673ffffffffffffffffffffffffffffffffffffffff1681526020018773ffffffffffffffffffffffffffffffffffffffff1673ffffffffffffffffffffffffffffffffffffffff168152602001868152602001858152602001848152602001838152602001821515151581526020019850505050505050505060405180910390f35b60008054600181600116156101000203166002900480601f0160208091040260200160405190810160405280929190818152602001828054600181600116156101000203166002900480156104035780601f106103d857610100808354040283529160200191610403565b820191906000526020600020905b8154815290600101906020018083116103e657829003601f168201915b505050505081565b60026020528060005260406000206000915090508060000154908060010160009054906101000a900473ffffffffffffffffffffffffffffffffffffffff16908060020160009054906101000a900473ffffffffffffffffffffffffffffffffffffffff16908060030154908060040154908060050154908060060154908060070160009054906101000a900460ff16905088565b60015481565b600083111515610544576040517f08c379a00000000000000000000000000000000000000000000000000000000081526004018080602001828103825260248152602001807f456e6572677920616d6f756e74206d757374206265206772656174657220746881526020017f616e20300000000000000000000000000000000000000000000000000000000081525060400191505060405180910390fd5b6000821115156105bc576040517f08c379a000000000000000000000000000000000000000000000000000000000815260040180806020018281038252601c8152602001807f5072696365206d7573742062652067726561746572207468616e20300000000081525060200191505060405180910390fd5b6001600081548092919060010191905055506105d6610e18565b610100604051908101604052806001548152602001600073ffffffffffffffffffffffffffffffffffffffff1681526020013373ffffffffffffffffffffffffffffffffffffffff1681526020018581526020018481526020014281526020018342018152602001600015158152509050806002600060015481526020019081526020016000206000820151816000015560208201518160010160006101000a81548173ffffffffffffffffffffffffffffffffffffffff021916908373ffffffffffffffffffffffffffffffffffffffff16021790555060408201518160020160006101000a81548173ffffffffffffffffffffffffffffffffffffffff021916908373ffffffffffffffffffffffffffffffffffffffff160217905550606082015181600301556080820151816004015560a0820151816005015560c0820151816006015560e08201518160070160006101000a81548160ff0219169083151502179055509050507f6b4ad594d8ede7aae02d73d8f9b96821b585e1962ae5427e5f626b435b1dab1a6001546000338787428842016000604051808981526020018873ffffffffffffffffffffffffffffffffffffffff1673ffffffffffffffffffffffffffffffffffffffff1681526020018773ffffffffffffffffffffffffffffffffffffffff1673ffffffffffffffffffffffffffffffffffffffff168152602001868152602001858152602001848152602001838152602001821515151581526020019850505050505050505060405180910390a150505050565b6000600260008381526020019081526020016000209050806004015434101515156108aa576040517f08c379a00000000000000000000000000000000000000000000000000000000081526004018080602001828103825260128152602001807f496e73756666696369656e742066756e6473000000000000000000000000000081525060200191505060405180910390fd5b8060070160009054906101000a900460ff16151515610957576040517f08c379a00000000000000000000000000000000000000000000000000000000081526004018080602001828103825260238152602001807f456e65726779436f6e747261637420697320616c726561647920636f6d706c6581526020017f746564000000000000000000000000000000000000000000000000000000000081525060400191505060405180910390fd5b8060020160009054906101000a900473ffffffffffffffffffffffffffffffffffffffff1673ffffffffffffffffffffffffffffffffffffffff163373ffffffffffffffffffffffffffffffffffffffff1614151515610a1f576040517f08c379a000000000000000000000000000000000000000000000000000000000815260040180806020018281038252601a8152602001807f42757965722063616e6e6f74206265207468652073656c6c657200000000000081525060200191505060405180910390fd5b338160010160006101000a81548173ffffffffffffffffffffffffffffffffffffffff021916908373ffffffffffffffffffffffffffffffffffffffff1602179055508060020160009054906101000a900473ffffffffffffffffffffffffffffffffffffffff1673ffffffffffffffffffffffffffffffffffffffff166108fc82600401549081150290604051600060405180830381858888f19350505050158015610ad0573d6000803e3d6000fd5b5060018160070160006101000a81548160ff0219169083151502179055508060026000848152602001908152602001600020600082015481600001556001820160009054906101000a900473ffffffffffffffffffffffffffffffffffffffff168160010160006101000a81548173ffffffffffffffffffffffffffffffffffffffff021916908373ffffffffffffffffffffffffffffffffffffffff1602179055506002820160009054906101000a900473ffffffffffffffffffffffffffffffffffffffff168160020160006101000a81548173ffffffffffffffffffffffffffffffffffffffff021916908373ffffffffffffffffffffffffffffffffffffffff160217905550600382015481600301556004820154816004015560058201548160050155600682015481600601556007820160009054906101000a900460ff168160070160006101000a81548160ff0219169083151502179055509050507f7bd1499cbf85e4cbe93c2480e3533dc5c1e9e51a60b759cf8f7496a879e40c6181600001548260010160009054906101000a900473ffffffffffffffffffffffffffffffffffffffff168360020160009054906101000a900473ffffffffffffffffffffffffffffffffffffffff1684600301548560040154866005015487600601546001604051808981526020018873ffffffffffffffffffffffffffffffffffffffff1673ffffffffffffffffffffffffffffffffffffffff1681526020018773ffffffffffffffffffffffffffffffffffffffff1673ffffffffffffffffffffffffffffffffffffffff168152602001868152602001858152602001848152602001838152602001821515151581526020019850505050505050505060405180910390a15050565b6000806000806000806000806000600260008b8152602001908152602001600020905080600001548160010160009054906101000a900473ffffffffffffffffffffffffffffffffffffffff168260020160009054906101000a900473ffffffffffffffffffffffffffffffffffffffff1683600301548460040154856005015486600601548760070160009054906101000a900460ff168696508595509850985098509850985098509850985050919395975091939597565b6101006040519081016040528060008152602001600073ffffffffffffffffffffffffffffffffffffffff168152602001600073ffffffffffffffffffffffffffffffffffffffff16815260200160008152602001600081526020016000815260200160008152602001600015158152509056fea165627a7a72305820b8400671b6ff93f45d410ba473a85314a2d5a9fc180c6c21a4ad7fa5f8af121c0029",
  "source": "pragma solidity ^0.5.0;\r\n\r\ncontract RenewableEnergyExchange {\r\n    string public name;\r\n    uint public energyContractCount = 0;\r\n    mapping(uint => EnergyContract) public energyContracts;\r\n\r\n    struct EnergyContract {\r\n        uint256 energyContractId;\r\n        address payable buyer;\r\n        address payable seller;\r\n        uint256 energyAmount;\r\n        uint256 price;\r\n        uint256 startDate;\r\n        uint256 endDate;\r\n        bool completed;\r\n    }\r\n\r\n    event EnergyContractCreated(\r\n        uint256 energyContractId,\r\n        address payable buyer,\r\n        address payable seller,\r\n        uint256 energyAmount,\r\n        uint256 price,\r\n        uint256 startDate,\r\n        uint256 endDate,\r\n        bool completed\r\n    );\r\n\r\n    event EnergyContractCompleted(\r\n        uint256 energyContractId,\r\n        address payable buyer,\r\n        address payable seller,\r\n        uint256 energyAmount,\r\n        uint256 price,\r\n        uint256 startDate,\r\n        uint256 endDate,\r\n        bool completed\r\n    );\r\n\r\n    constructor() public {\r\n        name = \"Plataforma de intercambio de energia renovable\";\r\n    }\r\n\r\n    function createEnergyContract(\r\n        uint256 _energyAmount,\r\n        uint256 _price,\r\n        uint256 _duration\r\n    ) public {\r\n        require(_energyAmount > 0, \"Energy amount must be greater than 0\");\r\n        require(_price > 0, \"Price must be greater than 0\");\r\n\r\n        energyContractCount++;\r\n        EnergyContract memory newEnergyContract = EnergyContract(\r\n            energyContractCount,\r\n            address(0), // Set buyer to zero address\r\n            msg.sender,\r\n            _energyAmount,\r\n            _price,\r\n            block.timestamp,\r\n            block.timestamp + _duration,\r\n            false\r\n        );\r\n        energyContracts[energyContractCount] = newEnergyContract;\r\n\r\n        emit EnergyContractCreated(\r\n            energyContractCount,\r\n            address(0), // Emit zero address as buyer\r\n            msg.sender,\r\n            _energyAmount,\r\n            _price,\r\n            block.timestamp,\r\n            block.timestamp + _duration,\r\n            false\r\n        );\r\n    }\r\n\r\n    function completeEnergyContract(uint256 _energyContractId) public payable {\r\n        EnergyContract storage energyContract = energyContracts[\r\n            _energyContractId\r\n        ];\r\n        require(msg.value >= energyContract.price, \"Insufficient funds\");\r\n        require(\r\n            !energyContract.completed,\r\n            \"EnergyContract is already completed\"\r\n        );\r\n        require(\r\n            msg.sender != energyContract.seller,\r\n            \"Buyer cannot be the seller\"\r\n        );\r\n\r\n        energyContract.buyer = msg.sender; // Set buyer to the address that calls this function\r\n        energyContract.seller.transfer(energyContract.price);\r\n        energyContract.completed = true;\r\n\r\n        // update the energyContract\r\n        energyContracts[_energyContractId] = energyContract;\r\n\r\n        emit EnergyContractCompleted(\r\n            energyContract.energyContractId,\r\n            energyContract.buyer,\r\n            energyContract.seller,\r\n            energyContract.energyAmount,\r\n            energyContract.price,\r\n            energyContract.startDate,\r\n            energyContract.endDate,\r\n            true\r\n        );\r\n    }\r\n\r\n    function getEnergyContract(\r\n        uint256 _energyContractId\r\n    )\r\n        public\r\n        view\r\n        returns (\r\n            // return as a struct\r\n            uint256,\r\n            address,\r\n            address,\r\n            uint256,\r\n            uint256,\r\n            uint256,\r\n            uint256,\r\n            bool\r\n        )\r\n    {\r\n        EnergyContract storage energyContract = energyContracts[\r\n            _energyContractId\r\n        ];\r\n        return (\r\n            energyContract.energyContractId,\r\n            energyContract.buyer,\r\n            energyContract.seller,\r\n            energyContract.energyAmount,\r\n            energyContract.price,\r\n            energyContract.startDate,\r\n            energyContract.endDate,\r\n            energyContract.completed\r\n        );\r\n    }\r\n}\r\n",
  "sourcePath": "D:/TEC/III anno/I semestre/Administracion de Proyectos/entregable 3/code/marketplace/src/contracts/RenewableEnergyExchange.sol",
  "compiler": {
    "name": "solc",
    "version": "0.5.0+commit.1d4f565a.Emscripten.clang"
  },
  "schemaVersion": "3.0.2",
  "updatedAt": "2023-05-19T22:18:47.883Z",
  "devdoc": {
    "methods": {}
  },
  "userdoc": {
    "methods": {}
  }
}