{
  "contractName": "RenewableEnergyExchange",
  "abi": [
    {
      "constant": true,
      "inputs": [],
      "name": "name",
      "outputs": [
        {
          "name": "",
          "type": "string"
        }
      ],
      "payable": false,
      "stateMutability": "view",
      "type": "function",
      "signature": "0x06fdde03"
    },
    {
      "constant": true,
      "inputs": [
        {
          "name": "",
          "type": "uint256"
        }
      ],
      "name": "transactions",
      "outputs": [
        {
          "name": "transactionId",
          "type": "uint256"
        },
        {
          "name": "buyer",
          "type": "address"
        },
        {
          "name": "seller",
          "type": "address"
        },
        {
          "name": "energyAmount",
          "type": "uint256"
        },
        {
          "name": "price",
          "type": "uint256"
        },
        {
          "name": "startDate",
          "type": "uint256"
        },
        {
          "name": "endDate",
          "type": "uint256"
        },
        {
          "name": "completed",
          "type": "bool"
        }
      ],
      "payable": false,
      "stateMutability": "view",
      "type": "function",
      "signature": "0x9ace38c2"
    },
    {
      "constant": true,
      "inputs": [],
      "name": "transactionCount",
      "outputs": [
        {
          "name": "",
          "type": "uint256"
        }
      ],
      "payable": false,
      "stateMutability": "view",
      "type": "function",
      "signature": "0xb77bf600"
    },
    {
      "inputs": [],
      "payable": false,
      "stateMutability": "nonpayable",
      "type": "constructor",
      "signature": "constructor"
    },
    {
      "anonymous": false,
      "inputs": [
        {
          "indexed": false,
          "name": "transactionId",
          "type": "uint256"
        },
        {
          "indexed": false,
          "name": "buyer",
          "type": "address"
        },
        {
          "indexed": false,
          "name": "seller",
          "type": "address"
        },
        {
          "indexed": false,
          "name": "energyAmount",
          "type": "uint256"
        },
        {
          "indexed": false,
          "name": "price",
          "type": "uint256"
        },
        {
          "indexed": false,
          "name": "startDate",
          "type": "uint256"
        },
        {
          "indexed": false,
          "name": "endDate",
          "type": "uint256"
        },
        {
          "indexed": false,
          "name": "completed",
          "type": "bool"
        }
      ],
      "name": "TransactionCreated",
      "type": "event",
      "signature": "0x2ff7d5fbdfe8ae5e9416ae053b5e3b7132a3f96dc095a9392795f2b0b92e7738"
    },
    {
      "anonymous": false,
      "inputs": [
        {
          "indexed": false,
          "name": "transactionId",
          "type": "uint256"
        },
        {
          "indexed": false,
          "name": "buyer",
          "type": "address"
        },
        {
          "indexed": false,
          "name": "seller",
          "type": "address"
        },
        {
          "indexed": false,
          "name": "energyAmount",
          "type": "uint256"
        },
        {
          "indexed": false,
          "name": "price",
          "type": "uint256"
        },
        {
          "indexed": false,
          "name": "startDate",
          "type": "uint256"
        },
        {
          "indexed": false,
          "name": "endDate",
          "type": "uint256"
        },
        {
          "indexed": false,
          "name": "completed",
          "type": "bool"
        }
      ],
      "name": "TransactionCompleted",
      "type": "event",
      "signature": "0x85c03319bd8c5c89eb735156ec87872b1d639617e3f76e6705296270816b06e9"
    },
    {
      "constant": false,
      "inputs": [
        {
          "name": "_buyer",
          "type": "address"
        },
        {
          "name": "_energyAmount",
          "type": "uint256"
        },
        {
          "name": "_price",
          "type": "uint256"
        },
        {
          "name": "_duration",
          "type": "uint256"
        }
      ],
      "name": "createContract",
      "outputs": [],
      "payable": false,
      "stateMutability": "nonpayable",
      "type": "function",
      "signature": "0x01a2f75c"
    },
    {
      "constant": false,
      "inputs": [
        {
          "name": "_transactionId",
          "type": "uint256"
        }
      ],
      "name": "completeTransaction",
      "outputs": [],
      "payable": true,
      "stateMutability": "payable",
      "type": "function",
      "signature": "0xf5e83e17"
    },
    {
      "constant": true,
      "inputs": [
        {
          "name": "_transactionId",
          "type": "uint256"
        }
      ],
      "name": "getTransaction",
      "outputs": [
        {
          "name": "",
          "type": "uint256"
        },
        {
          "name": "",
          "type": "address"
        },
        {
          "name": "",
          "type": "address"
        },
        {
          "name": "",
          "type": "uint256"
        },
        {
          "name": "",
          "type": "uint256"
        },
        {
          "name": "",
          "type": "uint256"
        },
        {
          "name": "",
          "type": "uint256"
        },
        {
          "name": "",
          "type": "bool"
        }
      ],
      "payable": false,
      "stateMutability": "view",
      "type": "function",
      "signature": "0x33ea3dc8"
    }
  ],
  "bytecode": "0x6080604052600060015534801561001557600080fd5b50606060405190810160405280602e81526020017f506c617461666f726d6120646520696e74657263616d62696f20646520656e6581526020017f726769612072656e6f7661626c650000000000000000000000000000000000008152506000908051906020019061008892919061008e565b50610133565b828054600181600116156101000203166002900490600052602060002090601f016020900481019282601f106100cf57805160ff19168380011785556100fd565b828001600101855582156100fd579182015b828111156100fc5782518255916020019190600101906100e1565b5b50905061010a919061010e565b5090565b61013091905b8082111561012c576000816000905550600101610114565b5090565b90565b610f38806101426000396000f3fe608060405260043610610078576000357c0100000000000000000000000000000000000000000000000000000000900463ffffffff16806301a2f75c1461007d57806306fdde03146100ec57806333ea3dc81461017c5780639ace38c214610258578063b77bf60014610334578063f5e83e171461035f575b600080fd5b34801561008957600080fd5b506100ea600480360360808110156100a057600080fd5b81019080803573ffffffffffffffffffffffffffffffffffffffff16906020019092919080359060200190929190803590602001909291908035906020019092919050505061038d565b005b3480156100f857600080fd5b506101016107a2565b6040518080602001828103825283818151815260200191508051906020019080838360005b83811015610141578082015181840152602081019050610126565b50505050905090810190601f16801561016e5780820380516001836020036101000a031916815260200191505b509250505060405180910390f35b34801561018857600080fd5b506101b56004803603602081101561019f57600080fd5b8101908080359060200190929190505050610840565b604051808981526020018873ffffffffffffffffffffffffffffffffffffffff1673ffffffffffffffffffffffffffffffffffffffff1681526020018773ffffffffffffffffffffffffffffffffffffffff1673ffffffffffffffffffffffffffffffffffffffff168152602001868152602001858152602001848152602001838152602001821515151581526020019850505050505050505060405180910390f35b34801561026457600080fd5b506102916004803603602081101561027b57600080fd5b81019080803590602001909291905050506108fa565b604051808981526020018873ffffffffffffffffffffffffffffffffffffffff1673ffffffffffffffffffffffffffffffffffffffff1681526020018773ffffffffffffffffffffffffffffffffffffffff1673ffffffffffffffffffffffffffffffffffffffff168152602001868152602001858152602001848152602001838152602001821515151581526020019850505050505050505060405180910390f35b34801561034057600080fd5b5061034961098f565b6040518082815260200191505060405180910390f35b61038b6004803603602081101561037557600080fd5b8101908080359060200190929190505050610995565b005b600073ffffffffffffffffffffffffffffffffffffffff168473ffffffffffffffffffffffffffffffffffffffff1614151515610432576040517f08c379a00000000000000000000000000000000000000000000000000000000081526004018080602001828103825260158152602001807f496e76616c69642062757965722061646472657373000000000000000000000081525060200191505060405180910390fd5b6000831115156104d0576040517f08c379a00000000000000000000000000000000000000000000000000000000081526004018080602001828103825260248152602001807f456e6572677920616d6f756e74206d757374206265206772656174657220746881526020017f616e20300000000000000000000000000000000000000000000000000000000081525060400191505060405180910390fd5b600082111515610548576040517f08c379a000000000000000000000000000000000000000000000000000000000815260040180806020018281038252601c8152602001807f5072696365206d7573742062652067726561746572207468616e20300000000081525060200191505060405180910390fd5b600160008154809291906001019190505550610562610e98565b6101006040519081016040528060015481526020018673ffffffffffffffffffffffffffffffffffffffff1681526020013373ffffffffffffffffffffffffffffffffffffffff1681526020018581526020018481526020014281526020018342018152602001600015158152509050806002600060015481526020019081526020016000206000820151816000015560208201518160010160006101000a81548173ffffffffffffffffffffffffffffffffffffffff021916908373ffffffffffffffffffffffffffffffffffffffff16021790555060408201518160020160006101000a81548173ffffffffffffffffffffffffffffffffffffffff021916908373ffffffffffffffffffffffffffffffffffffffff160217905550606082015181600301556080820151816004015560a0820151816005015560c0820151816006015560e08201518160070160006101000a81548160ff0219169083151502179055509050507f2ff7d5fbdfe8ae5e9416ae053b5e3b7132a3f96dc095a9392795f2b0b92e773860015486338787428842016000604051808981526020018873ffffffffffffffffffffffffffffffffffffffff1673ffffffffffffffffffffffffffffffffffffffff1681526020018773ffffffffffffffffffffffffffffffffffffffff1673ffffffffffffffffffffffffffffffffffffffff168152602001868152602001858152602001848152602001838152602001821515151581526020019850505050505050505060405180910390a15050505050565b60008054600181600116156101000203166002900480601f0160208091040260200160405190810160405280929190818152602001828054600181600116156101000203166002900480156108385780601f1061080d57610100808354040283529160200191610838565b820191906000526020600020905b81548152906001019060200180831161081b57829003601f168201915b505050505081565b6000806000806000806000806000600260008b8152602001908152602001600020905080600001548160010160009054906101000a900473ffffffffffffffffffffffffffffffffffffffff168260020160009054906101000a900473ffffffffffffffffffffffffffffffffffffffff1683600301548460040154856005015486600601548760070160009054906101000a900460ff168696508595509850985098509850985098509850985050919395975091939597565b60026020528060005260406000206000915090508060000154908060010160009054906101000a900473ffffffffffffffffffffffffffffffffffffffff16908060020160009054906101000a900473ffffffffffffffffffffffffffffffffffffffff16908060030154908060040154908060050154908060060154908060070160009054906101000a900460ff16905088565b60015481565b60006002600083815260200190815260200160002090508060010160009054906101000a900473ffffffffffffffffffffffffffffffffffffffff1673ffffffffffffffffffffffffffffffffffffffff163373ffffffffffffffffffffffffffffffffffffffff16141515610a99576040517f08c379a000000000000000000000000000000000000000000000000000000000815260040180806020018281038252602b8152602001807f4f6e6c79207468652062757965722063616e20636f6d706c657465207468652081526020017f7472616e73616374696f6e00000000000000000000000000000000000000000081525060400191505060405180910390fd5b80600401543410151515610b15576040517f08c379a00000000000000000000000000000000000000000000000000000000081526004018080602001828103825260128152602001807f496e73756666696369656e742066756e6473000000000000000000000000000081525060200191505060405180910390fd5b8060070160009054906101000a900460ff16151515610b9c576040517f08c379a00000000000000000000000000000000000000000000000000000000081526004018080602001828103825260208152602001807f5472616e73616374696f6e20697320616c726561647920636f6d706c6574656481525060200191505060405180910390fd5b8060020160009054906101000a900473ffffffffffffffffffffffffffffffffffffffff1673ffffffffffffffffffffffffffffffffffffffff166108fc82600401549081150290604051600060405180830381858888f19350505050158015610c0a573d6000803e3d6000fd5b5060018160070160006101000a81548160ff0219169083151502179055508060026000848152602001908152602001600020600082015481600001556001820160009054906101000a900473ffffffffffffffffffffffffffffffffffffffff168160010160006101000a81548173ffffffffffffffffffffffffffffffffffffffff021916908373ffffffffffffffffffffffffffffffffffffffff1602179055506002820160009054906101000a900473ffffffffffffffffffffffffffffffffffffffff168160020160006101000a81548173ffffffffffffffffffffffffffffffffffffffff021916908373ffffffffffffffffffffffffffffffffffffffff160217905550600382015481600301556004820154816004015560058201548160050155600682015481600601556007820160009054906101000a900460ff168160070160006101000a81548160ff0219169083151502179055509050507f85c03319bd8c5c89eb735156ec87872b1d639617e3f76e6705296270816b06e981600001548260010160009054906101000a900473ffffffffffffffffffffffffffffffffffffffff168360020160009054906101000a900473ffffffffffffffffffffffffffffffffffffffff1684600301548560040154866005015487600601546001604051808981526020018873ffffffffffffffffffffffffffffffffffffffff1673ffffffffffffffffffffffffffffffffffffffff1681526020018773ffffffffffffffffffffffffffffffffffffffff1673ffffffffffffffffffffffffffffffffffffffff168152602001868152602001858152602001848152602001838152602001821515151581526020019850505050505050505060405180910390a15050565b6101006040519081016040528060008152602001600073ffffffffffffffffffffffffffffffffffffffff168152602001600073ffffffffffffffffffffffffffffffffffffffff16815260200160008152602001600081526020016000815260200160008152602001600015158152509056fea165627a7a723058208c8b036342ff52c0a41a3e2c489e5066438bcc6370b28b8882fe68089e57a4ca0029",
  "source": "pragma solidity ^0.5.0;\r\n\r\ncontract RenewableEnergyExchange {\r\n    string public name;\r\n    uint public transactionCount = 0;\r\n    mapping(uint => Transaction) public transactions;\r\n\r\n    struct Transaction {\r\n        uint256 transactionId;\r\n        address payable buyer;\r\n        address payable seller;\r\n        uint256 energyAmount;\r\n        uint256 price;\r\n        uint256 startDate;\r\n        uint256 endDate;\r\n        bool completed;\r\n    }\r\n\r\n    event TransactionCreated(\r\n        uint256 transactionId,\r\n        address payable buyer,\r\n        address payable seller,\r\n        uint256 energyAmount,\r\n        uint256 price,\r\n        uint256 startDate,\r\n        uint256 endDate,\r\n        bool completed\r\n    );\r\n\r\n    event TransactionCompleted(\r\n        uint256 transactionId,\r\n        address payable buyer,\r\n        address payable seller,\r\n        uint256 energyAmount,\r\n        uint256 price,\r\n        uint256 startDate,\r\n        uint256 endDate,\r\n        bool completed\r\n    );\r\n\r\n    constructor() public {\r\n        name = \"Plataforma de intercambio de energia renovable\";\r\n    }\r\n\r\n    function createContract(\r\n        address payable _buyer,\r\n        uint256 _energyAmount,\r\n        uint256 _price,\r\n        uint256 _duration\r\n    ) public {\r\n        require(_buyer != address(0), \"Invalid buyer address\");\r\n        require(_energyAmount > 0, \"Energy amount must be greater than 0\");\r\n        require(_price > 0, \"Price must be greater than 0\");\r\n\r\n        transactionCount++;\r\n        Transaction memory newTransaction = Transaction(\r\n            transactionCount,\r\n            _buyer,\r\n            msg.sender,\r\n            _energyAmount,\r\n            _price,\r\n            block.timestamp,\r\n            block.timestamp + _duration,\r\n            false\r\n        );\r\n        transactions[transactionCount] = newTransaction;\r\n\r\n        emit TransactionCreated(\r\n            transactionCount,\r\n            _buyer,\r\n            msg.sender,\r\n            _energyAmount,\r\n            _price,\r\n            block.timestamp,\r\n            block.timestamp + _duration,\r\n            false\r\n        );\r\n    }\r\n\r\n    function completeTransaction(uint256 _transactionId) public payable {\r\n        Transaction storage transaction = transactions[_transactionId];\r\n        require(\r\n            msg.sender == transaction.buyer,\r\n            \"Only the buyer can complete the transaction\"\r\n        );\r\n        require(msg.value >= transaction.price, \"Insufficient funds\");\r\n        require(!transaction.completed, \"Transaction is already completed\");\r\n\r\n        transaction.seller.transfer(transaction.price);\r\n        transaction.completed = true;\r\n\r\n        // update the transaction\r\n        transactions[_transactionId] = transaction;\r\n\r\n        emit TransactionCompleted(\r\n            transaction.transactionId,\r\n            transaction.buyer,\r\n            transaction.seller,\r\n            transaction.energyAmount,\r\n            transaction.price,\r\n            transaction.startDate,\r\n            transaction.endDate,\r\n            true\r\n        );\r\n    }\r\n\r\n    function getTransaction(\r\n        uint256 _transactionId\r\n    )\r\n        public\r\n        view\r\n        returns (\r\n            // return as a struct\r\n            uint256,\r\n            address,\r\n            address,\r\n            uint256,\r\n            uint256,\r\n            uint256,\r\n            uint256,\r\n            bool\r\n        )\r\n    {\r\n        Transaction storage transaction = transactions[_transactionId];\r\n        return (\r\n            transaction.transactionId,\r\n            transaction.buyer,\r\n            transaction.seller,\r\n            transaction.energyAmount,\r\n            transaction.price,\r\n            transaction.startDate,\r\n            transaction.endDate,\r\n            transaction.completed\r\n        );\r\n    }\r\n}\r\n",
  "sourcePath": "D:/TEC/III anno/I semestre/Administracion de Proyectos/entregable 3/code/marketplace/src/contracts/RenewableEnergyExchange.sol",
  "compiler": {
    "name": "solc",
    "version": "0.5.0+commit.1d4f565a.Emscripten.clang"
  },
  "schemaVersion": "3.0.2",
  "updatedAt": "2023-05-19T04:12:35.656Z",
  "devdoc": {
    "methods": {}
  },
  "userdoc": {
    "methods": {}
  }
}